{
  "_format": "hh-sol-artifact-1",
  "contractName": "LaosBatchMinter",
  "sourceName": "contracts/LaosBatchMinter.sol",
  "abi": [
    {
      "inputs": [
        {
          "internalType": "address",
          "name": "_ownerOfPublicMinter",
          "type": "address"
        }
      ],
      "stateMutability": "nonpayable",
      "type": "constructor"
    },
    {
      "inputs": [
        {
          "internalType": "address",
          "name": "owner",
          "type": "address"
        }
      ],
      "name": "OwnableInvalidOwner",
      "type": "error"
    },
    {
      "inputs": [
        {
          "internalType": "address",
          "name": "account",
          "type": "address"
        }
      ],
      "name": "OwnableUnauthorizedAccount",
      "type": "error"
    },
    {
      "anonymous": false,
      "inputs": [
        {
          "indexed": true,
          "internalType": "address",
          "name": "previousOwner",
          "type": "address"
        },
        {
          "indexed": true,
          "internalType": "address",
          "name": "newOwner",
          "type": "address"
        }
      ],
      "name": "BatchMinterOwnershipTransferred",
      "type": "event"
    },
    {
      "anonymous": false,
      "inputs": [
        {
          "indexed": true,
          "internalType": "uint256",
          "name": "_tokenId",
          "type": "uint256"
        },
        {
          "indexed": false,
          "internalType": "string",
          "name": "_tokenURI",
          "type": "string"
        }
      ],
      "name": "EvolvedWithExternalURI",
      "type": "event"
    },
    {
      "anonymous": false,
      "inputs": [
        {
          "indexed": true,
          "internalType": "address",
          "name": "_to",
          "type": "address"
        },
        {
          "indexed": false,
          "internalType": "uint96",
          "name": "_slot",
          "type": "uint96"
        },
        {
          "indexed": false,
          "internalType": "uint256",
          "name": "_tokenId",
          "type": "uint256"
        },
        {
          "indexed": false,
          "internalType": "string",
          "name": "_tokenURI",
          "type": "string"
        }
      ],
      "name": "MintedWithExternalURI",
      "type": "event"
    },
    {
      "anonymous": false,
      "inputs": [
        {
          "indexed": true,
          "internalType": "address",
          "name": "_owner",
          "type": "address"
        },
        {
          "indexed": false,
          "internalType": "address",
          "name": "_precompileAddress",
          "type": "address"
        }
      ],
      "name": "NewBatchMinter",
      "type": "event"
    },
    {
      "anonymous": false,
      "inputs": [
        {
          "indexed": true,
          "internalType": "address",
          "name": "_previousOwner",
          "type": "address"
        },
        {
          "indexed": true,
          "internalType": "address",
          "name": "_newOwner",
          "type": "address"
        }
      ],
      "name": "OwnershipTransferred",
      "type": "event"
    },
    {
      "inputs": [],
      "name": "batchMinterOwner",
      "outputs": [
        {
          "internalType": "address",
          "name": "",
          "type": "address"
        }
      ],
      "stateMutability": "view",
      "type": "function"
    },
    {
      "inputs": [],
      "name": "collectionFactoryAddress",
      "outputs": [
        {
          "internalType": "address",
          "name": "",
          "type": "address"
        }
      ],
      "stateMutability": "view",
      "type": "function"
    },
    {
      "inputs": [
        {
          "internalType": "uint256",
          "name": "_tokenId",
          "type": "uint256"
        },
        {
          "internalType": "string",
          "name": "_tokenURI",
          "type": "string"
        }
      ],
      "name": "evolveWithExternalURI",
      "outputs": [],
      "stateMutability": "nonpayable",
      "type": "function"
    },
    {
      "inputs": [
        {
          "internalType": "uint256[]",
          "name": "_tokenId",
          "type": "uint256[]"
        },
        {
          "internalType": "string[]",
          "name": "_tokenURI",
          "type": "string[]"
        }
      ],
      "name": "evolveWithExternalURIBatch",
      "outputs": [],
      "stateMutability": "nonpayable",
      "type": "function"
    },
    {
      "inputs": [
        {
          "internalType": "address",
          "name": "_to",
          "type": "address"
        },
        {
          "internalType": "uint96",
          "name": "_slot",
          "type": "uint96"
        },
        {
          "internalType": "string",
          "name": "_tokenURI",
          "type": "string"
        }
      ],
      "name": "mintWithExternalURI",
      "outputs": [
        {
          "internalType": "uint256",
          "name": "",
          "type": "uint256"
        }
      ],
      "stateMutability": "nonpayable",
      "type": "function"
    },
    {
      "inputs": [
        {
          "internalType": "address[]",
          "name": "_to",
          "type": "address[]"
        },
        {
          "internalType": "uint96[]",
          "name": "_slot",
          "type": "uint96[]"
        },
        {
          "internalType": "string[]",
          "name": "_tokenURI",
          "type": "string[]"
        }
      ],
      "name": "mintWithExternalURIBatch",
      "outputs": [
        {
          "internalType": "uint256[]",
          "name": "",
          "type": "uint256[]"
        }
      ],
      "stateMutability": "nonpayable",
      "type": "function"
    },
    {
      "inputs": [],
      "name": "owner",
      "outputs": [
        {
          "internalType": "address",
          "name": "",
          "type": "address"
        }
      ],
      "stateMutability": "view",
      "type": "function"
    },
    {
      "inputs": [],
      "name": "precompileAddress",
      "outputs": [
        {
          "internalType": "address",
          "name": "",
          "type": "address"
        }
      ],
      "stateMutability": "view",
      "type": "function"
    },
    {
      "inputs": [],
      "name": "renounceBatchMinterOwnership",
      "outputs": [],
      "stateMutability": "nonpayable",
      "type": "function"
    },
    {
      "inputs": [
        {
          "internalType": "address",
          "name": "_newAddress",
          "type": "address"
        }
      ],
      "name": "setPrecompileAddress",
      "outputs": [],
      "stateMutability": "nonpayable",
      "type": "function"
    },
    {
      "inputs": [
        {
          "internalType": "uint256",
          "name": "_tokenId",
          "type": "uint256"
        }
      ],
      "name": "tokenURI",
      "outputs": [
        {
          "internalType": "string",
          "name": "",
          "type": "string"
        }
      ],
      "stateMutability": "view",
      "type": "function"
    },
    {
      "inputs": [
        {
          "internalType": "address",
          "name": "newOwner",
          "type": "address"
        }
      ],
      "name": "transferBatchMinterOwnership",
      "outputs": [],
      "stateMutability": "nonpayable",
      "type": "function"
    },
    {
      "inputs": [
        {
          "internalType": "address",
          "name": "_newOwner",
          "type": "address"
        }
      ],
      "name": "transferOwnership",
      "outputs": [],
      "stateMutability": "nonpayable",
      "type": "function"
    }
  ],
  "bytecode": "0x608060405234801561001057600080fd5b50604051610f35380380610f3583398101604081905261002f91610177565b806001600160a01b03811661005e57604051631e4fbdf760e01b81526000600482015260240160405180910390fd5b61006781610127565b50604051632069e95360e01b815230600482015261040390632069e953906024016020604051808303816000875af11580156100a7573d6000803e3d6000fd5b505050506040513d601f19601f820116820180604052508101906100cb9190610177565b600180546001600160a01b0319166001600160a01b03928316908117909155604051908152908216907fc85b5cb91c5fa87687f6f28a2c4dd96793f20bc24b1532e0b59246e2e28f75429060200160405180910390a2506101a7565b600080546001600160a01b038381166001600160a01b0319831681178455604051919092169283917fa005ab243df28889a24a65772afc15a59c33ebf3581f15cdfd1ccee103c1b3cb9190a35050565b60006020828403121561018957600080fd5b81516001600160a01b03811681146101a057600080fd5b9392505050565b610d7f806101b66000396000f3fe608060405234801561001057600080fd5b50600436106100cf5760003560e01c80637607808a1161008c578063be47b67611610066578063be47b67614610185578063c87b56dd14610198578063f2fde38b146101b8578063fd024566146101cb57600080fd5b80637607808a146101575780638da5cb5b1461016a5780639eb8a6e31461017257600080fd5b806305d92ddc146100d45780630be59b8e146100e95780632bc024c9146100f15780632fd38f4d1461011b578063401f8c7a1461012e57806348c0550e14610137575b600080fd5b6100e76100e2366004610820565b6101ec565b005b6100e7610216565b6000546001600160a01b03165b6040516001600160a01b0390911681526020015b60405180910390f35b6100e761012936600461088c565b61022a565b6100fe61040381565b61014a61014536600461091b565b61029d565b60405161011291906109be565b6100e7610165366004610820565b610468565b6100fe6104a6565b6100e7610180366004610a01565b610519565b6001546100fe906001600160a01b031681565b6101ab6101a6366004610a70565b610627565b6040516101129190610aad565b6100e76101c6366004610820565b61069f565b6101de6101d9366004610b01565b610702565b604051908152602001610112565b6101f461078e565b600180546001600160a01b0319166001600160a01b0392909216919091179055565b61021e61078e565b61022860006107bb565b565b61023261078e565b600154604051632fd38f4d60e01b81526001600160a01b0390911690632fd38f4d9061026690869086908690600401610b80565b600060405180830381600087803b15801561028057600080fd5b505af1158015610294573d6000803e3d6000fd5b50505050505050565b60606102a761078e565b85841480156102b557508382145b6103015760405162461bcd60e51b8152602060048201526018602482015277082e4e4c2f240d8cadccee8d0e640daeae6e840dac2e8c6d60431b60448201526064015b60405180910390fd5b6000866001600160401b0381111561031b5761031b610b9a565b604051908082528060200260200182016040528015610344578160200160208202803683370190505b50905060005b8781101561045c576001546001600160a01b031663fd0245668a8a8481811061037557610375610bb0565b905060200201602081019061038a9190610820565b89898581811061039c5761039c610bb0565b90506020020160208101906103b19190610bc6565b8888868181106103c3576103c3610bb0565b90506020028101906103d59190610be1565b6040518563ffffffff1660e01b81526004016103f49493929190610c27565b6020604051808303816000875af1158015610413573d6000803e3d6000fd5b505050506040513d601f19601f820116820180604052508101906104379190610c6a565b82828151811061044957610449610bb0565b602090810291909101015260010161034a565b50979650505050505050565b61047061078e565b6001600160a01b03811661049a57604051631e4fbdf760e01b8152600060048201526024016102f8565b6104a3816107bb565b50565b60015460408051638da5cb5b60e01b815290516000926001600160a01b031691638da5cb5b9160048083019260209291908290030181865afa1580156104f0573d6000803e3d6000fd5b505050506040513d601f19601f820116820180604052508101906105149190610c83565b905090565b61052161078e565b82811461056b5760405162461bcd60e51b8152602060048201526018602482015277082e4e4c2f240d8cadccee8d0e640daeae6e840dac2e8c6d60431b60448201526064016102f8565b60005b83811015610620576001546001600160a01b0316632fd38f4d86868481811061059957610599610bb0565b905060200201358585858181106105b2576105b2610bb0565b90506020028101906105c49190610be1565b6040518463ffffffff1660e01b81526004016105e293929190610b80565b600060405180830381600087803b1580156105fc57600080fd5b505af1158015610610573d6000803e3d6000fd5b50506001909201915061056e9050565b5050505050565b60015460405163c87b56dd60e01b8152600481018390526060916001600160a01b03169063c87b56dd90602401600060405180830381865afa158015610671573d6000803e3d6000fd5b505050506040513d6000823e601f3d908101601f191682016040526106999190810190610ca0565b92915050565b6106a761078e565b60015460405163f2fde38b60e01b81526001600160a01b0383811660048301529091169063f2fde38b90602401600060405180830381600087803b1580156106ee57600080fd5b505af1158015610620573d6000803e3d6000fd5b600061070c61078e565b600154604051637e8122b360e11b81526001600160a01b039091169063fd02456690610742908890889088908890600401610c27565b6020604051808303816000875af1158015610761573d6000803e3d6000fd5b505050506040513d601f19601f820116820180604052508101906107859190610c6a565b95945050505050565b6000546001600160a01b031633146102285760405163118cdaa760e01b81523360048201526024016102f8565b600080546001600160a01b038381166001600160a01b0319831681178455604051919092169283917fa005ab243df28889a24a65772afc15a59c33ebf3581f15cdfd1ccee103c1b3cb9190a35050565b6001600160a01b03811681146104a357600080fd5b60006020828403121561083257600080fd5b813561083d8161080b565b9392505050565b60008083601f84011261085657600080fd5b5081356001600160401b0381111561086d57600080fd5b60208301915083602082850101111561088557600080fd5b9250929050565b6000806000604084860312156108a157600080fd5b8335925060208401356001600160401b038111156108be57600080fd5b6108ca86828701610844565b9497909650939450505050565b60008083601f8401126108e957600080fd5b5081356001600160401b0381111561090057600080fd5b6020830191508360208260051b850101111561088557600080fd5b6000806000806000806060878903121561093457600080fd5b86356001600160401b0381111561094a57600080fd5b61095689828a016108d7565b90975095505060208701356001600160401b0381111561097557600080fd5b61098189828a016108d7565b90955093505060408701356001600160401b038111156109a057600080fd5b6109ac89828a016108d7565b979a9699509497509295939492505050565b602080825282518282018190526000918401906040840190835b818110156109f65783518352602093840193909201916001016109d8565b509095945050505050565b60008060008060408587031215610a1757600080fd5b84356001600160401b03811115610a2d57600080fd5b610a39878288016108d7565b90955093505060208501356001600160401b03811115610a5857600080fd5b610a64878288016108d7565b95989497509550505050565b600060208284031215610a8257600080fd5b5035919050565b60005b83811015610aa4578181015183820152602001610a8c565b50506000910152565b6020815260008251806020840152610acc816040850160208701610a89565b601f01601f19169190910160400192915050565b80356bffffffffffffffffffffffff81168114610afc57600080fd5b919050565b60008060008060608587031215610b1757600080fd5b8435610b228161080b565b9350610b3060208601610ae0565b925060408501356001600160401b03811115610b4b57600080fd5b610a6487828801610844565b81835281816020850137506000828201602090810191909152601f909101601f19169091010190565b838152604060208201526000610785604083018486610b57565b634e487b7160e01b600052604160045260246000fd5b634e487b7160e01b600052603260045260246000fd5b600060208284031215610bd857600080fd5b61083d82610ae0565b6000808335601e19843603018112610bf857600080fd5b8301803591506001600160401b03821115610c1257600080fd5b60200191503681900382131561088557600080fd5b6001600160a01b03851681526bffffffffffffffffffffffff84166020820152606060408201819052600090610c609083018486610b57565b9695505050505050565b600060208284031215610c7c57600080fd5b5051919050565b600060208284031215610c9557600080fd5b815161083d8161080b565b600060208284031215610cb257600080fd5b81516001600160401b03811115610cc857600080fd5b8201601f81018413610cd957600080fd5b80516001600160401b03811115610cf257610cf2610b9a565b604051601f8201601f19908116603f011681016001600160401b0381118282101715610d2057610d20610b9a565b604052818152828201602001861015610d3857600080fd5b610785826020830160208601610a8956fea2646970667358221220c48d91b3b9b609852e061078147f5a3f85e40aebed36d69641825dd8f7a0436d64736f6c634300081c0033",
  "linkReferences": {},
  "deployedLinkReferences": {}
}